{
  "contractName": "StudentRegistry",
  "abi": [
    {
      "inputs": [],
      "stateMutability": "nonpayable",
      "type": "constructor"
    },
    {
      "anonymous": false,
      "inputs": [
        {
          "indexed": true,
          "internalType": "address",
          "name": "studentAddress",
          "type": "address"
        },
        {
          "indexed": true,
          "internalType": "string",
          "name": "name",
          "type": "string"
        },
        {
          "indexed": true,
          "internalType": "string",
          "name": "course",
          "type": "string"
        },
        {
          "indexed": false,
          "internalType": "string",
          "name": "session",
          "type": "string"
        },
        {
          "indexed": false,
          "internalType": "string",
          "name": "message",
          "type": "string"
        },
        {
          "indexed": false,
          "internalType": "bytes32",
          "name": "blockHash",
          "type": "bytes32"
        },
        {
          "indexed": false,
          "internalType": "uint256",
          "name": "blockNumber",
          "type": "uint256"
        }
      ],
      "name": "StudentAdded",
      "type": "event"
    },
    {
      "inputs": [],
      "name": "admin",
      "outputs": [
        {
          "internalType": "address",
          "name": "",
          "type": "address"
        }
      ],
      "stateMutability": "view",
      "type": "function",
      "constant": true
    },
    {
      "inputs": [
        {
          "internalType": "uint256",
          "name": "",
          "type": "uint256"
        }
      ],
      "name": "studentAddresses",
      "outputs": [
        {
          "internalType": "address",
          "name": "",
          "type": "address"
        }
      ],
      "stateMutability": "view",
      "type": "function",
      "constant": true
    },
    {
      "inputs": [
        {
          "internalType": "address",
          "name": "",
          "type": "address"
        }
      ],
      "name": "students",
      "outputs": [
        {
          "internalType": "string",
          "name": "name",
          "type": "string"
        },
        {
          "internalType": "string",
          "name": "fatherName",
          "type": "string"
        },
        {
          "internalType": "string",
          "name": "cnic",
          "type": "string"
        },
        {
          "internalType": "string",
          "name": "serialNo",
          "type": "string"
        },
        {
          "internalType": "string",
          "name": "registrationNo",
          "type": "string"
        },
        {
          "internalType": "string",
          "name": "course",
          "type": "string"
        },
        {
          "internalType": "string",
          "name": "session",
          "type": "string"
        }
      ],
      "stateMutability": "view",
      "type": "function",
      "constant": true
    },
    {
      "inputs": [
        {
          "internalType": "string",
          "name": "_name",
          "type": "string"
        },
        {
          "internalType": "string",
          "name": "_fatherName",
          "type": "string"
        },
        {
          "internalType": "string",
          "name": "_cnic",
          "type": "string"
        },
        {
          "internalType": "string",
          "name": "_serialNo",
          "type": "string"
        },
        {
          "internalType": "string",
          "name": "_registrationNo",
          "type": "string"
        },
        {
          "internalType": "string",
          "name": "_course",
          "type": "string"
        },
        {
          "internalType": "string",
          "name": "_session",
          "type": "string"
        }
      ],
      "name": "addStudent",
      "outputs": [
        {
          "internalType": "string",
          "name": "",
          "type": "string"
        },
        {
          "internalType": "bytes32",
          "name": "",
          "type": "bytes32"
        },
        {
          "internalType": "uint256",
          "name": "",
          "type": "uint256"
        }
      ],
      "stateMutability": "nonpayable",
      "type": "function"
    },
    {
      "inputs": [
        {
          "internalType": "string",
          "name": "_name",
          "type": "string"
        },
        {
          "internalType": "string",
          "name": "_fatherName",
          "type": "string"
        },
        {
          "internalType": "string",
          "name": "_cnic",
          "type": "string"
        },
        {
          "internalType": "string",
          "name": "_serialNo",
          "type": "string"
        },
        {
          "internalType": "string",
          "name": "_registrationNo",
          "type": "string"
        },
        {
          "internalType": "string",
          "name": "_course",
          "type": "string"
        },
        {
          "internalType": "string",
          "name": "_session",
          "type": "string"
        }
      ],
      "name": "getStudentData",
      "outputs": [
        {
          "internalType": "address",
          "name": "",
          "type": "address"
        },
        {
          "internalType": "string",
          "name": "",
          "type": "string"
        },
        {
          "internalType": "bytes32",
          "name": "",
          "type": "bytes32"
        },
        {
          "internalType": "uint256",
          "name": "",
          "type": "uint256"
        },
        {
          "internalType": "string",
          "name": "",
          "type": "string"
        },
        {
          "internalType": "bytes32",
          "name": "",
          "type": "bytes32"
        }
      ],
      "stateMutability": "view",
      "type": "function",
      "constant": true
    },
    {
      "inputs": [],
      "name": "getAllStudentAddresses",
      "outputs": [
        {
          "internalType": "address[]",
          "name": "",
          "type": "address[]"
        }
      ],
      "stateMutability": "view",
      "type": "function",
      "constant": true
    }
  ],
  "bytecode": "0x608060405234801561001057600080fd5b50336000806101000a81548173ffffffffffffffffffffffffffffffffffffffff021916908373ffffffffffffffffffffffffffffffffffffffff160217905550611f36806100606000396000f3fe608060405234801561001057600080fd5b50600436106100625760003560e01c8063194debc614610067578063a6c807a914610099578063b5ab682d146100cf578063e70cc6eb146100ff578063eeff446d1461011d578063f851a44014610152575b600080fd5b610081600480360381019061007c9190610f41565b610170565b60405161009093929190611158565b60405180910390f35b6100b360048036038101906100ae91906111f4565b6104e4565b6040516100c69796959493929190611221565b60405180910390f35b6100e960048036038101906100e491906112ed565b6108de565b6040516100f69190611329565b60405180910390f35b61010761091d565b6040516101149190611402565b60405180910390f35b61013760048036038101906101329190610f41565b6109ab565b60405161014996959493929190611424565b60405180910390f35b61015a610c88565b6040516101679190611329565b60405180910390f35b606060008060008054906101000a900473ffffffffffffffffffffffffffffffffffffffff1673ffffffffffffffffffffffffffffffffffffffff163373ffffffffffffffffffffffffffffffffffffffff1614610203576040517f08c379a00000000000000000000000000000000000000000000000000000000081526004016101fa90611505565b60405180910390fd5b61020e888888610cac565b1561024e576040517f08c379a000000000000000000000000000000000000000000000000000000000815260040161024590611597565b60405180910390fd5b6000334360014361025f91906115e6565b40604051602001610272939291906116a4565b6040516020818303038152906040528051906020012060001c90506040518060e001604052808c81526020018b81526020018a815260200189815260200188815260200187815260200186815250600160008373ffffffffffffffffffffffffffffffffffffffff1673ffffffffffffffffffffffffffffffffffffffff168152602001908152602001600020600082015181600001908161031491906118ed565b50602082015181600101908161032a91906118ed565b50604082015181600201908161034091906118ed565b50606082015181600301908161035691906118ed565b50608082015181600401908161036c91906118ed565b5060a082015181600501908161038291906118ed565b5060c082015181600601908161039891906118ed565b509050506002819080600181540180825580915050600190039060005260206000200160009091909190916101000a81548173ffffffffffffffffffffffffffffffffffffffff021916908373ffffffffffffffffffffffffffffffffffffffff16021790555060006040518060400160405280601f81526020017f53747564656e742064617461206164646564207375636365737366756c6c79008152509050600060014361044891906115e6565b4090508760405161045991906119fb565b60405180910390208d60405161046f91906119fb565b60405180910390208473ffffffffffffffffffffffffffffffffffffffff167feb50dee2c95a29d31d977ff6745ca79b1de117124f88521552619188048a51198a8686436040516104c39493929190611a12565b60405180910390a48181439550955095505050509750975097945050505050565b600160205280600052604060002060009150905080600001805461050790611710565b80601f016020809104026020016040519081016040528092919081815260200182805461053390611710565b80156105805780601f1061055557610100808354040283529160200191610580565b820191906000526020600020905b81548152906001019060200180831161056357829003601f168201915b50505050509080600101805461059590611710565b80601f01602080910402602001604051908101604052809291908181526020018280546105c190611710565b801561060e5780601f106105e35761010080835404028352916020019161060e565b820191906000526020600020905b8154815290600101906020018083116105f157829003601f168201915b50505050509080600201805461062390611710565b80601f016020809104026020016040519081016040528092919081815260200182805461064f90611710565b801561069c5780601f106106715761010080835404028352916020019161069c565b820191906000526020600020905b81548152906001019060200180831161067f57829003601f168201915b5050505050908060030180546106b190611710565b80601f01602080910402602001604051908101604052809291908181526020018280546106dd90611710565b801561072a5780601f106106ff5761010080835404028352916020019161072a565b820191906000526020600020905b81548152906001019060200180831161070d57829003601f168201915b50505050509080600401805461073f90611710565b80601f016020809104026020016040519081016040528092919081815260200182805461076b90611710565b80156107b85780601f1061078d576101008083540402835291602001916107b8565b820191906000526020600020905b81548152906001019060200180831161079b57829003601f168201915b5050505050908060050180546107cd90611710565b80601f01602080910402602001604051908101604052809291908181526020018280546107f990611710565b80156108465780601f1061081b57610100808354040283529160200191610846565b820191906000526020600020905b81548152906001019060200180831161082957829003601f168201915b50505050509080600601805461085b90611710565b80601f016020809104026020016040519081016040528092919081815260200182805461088790611710565b80156108d45780601f106108a9576101008083540402835291602001916108d4565b820191906000526020600020905b8154815290600101906020018083116108b757829003601f168201915b5050505050905087565b600281815481106108ee57600080fd5b906000526020600020016000915054906101000a900473ffffffffffffffffffffffffffffffffffffffff1681565b606060028054806020026020016040519081016040528092919081815260200182805480156109a157602002820191906000526020600020905b8160009054906101000a900473ffffffffffffffffffffffffffffffffffffffff1673ffffffffffffffffffffffffffffffffffffffff1681526020019060010190808311610957575b5050505050905090565b600060606000806060600080600090505b600280549050811015610c31576000600282815481106109df576109de611a65565b5b9060005260206000200160009054906101000a900473ffffffffffffffffffffffffffffffffffffffff1690506000600160008373ffffffffffffffffffffffffffffffffffffffff1673ffffffffffffffffffffffffffffffffffffffff16815260200190815260200160002090508f8051906020012081600001604051610a689190611b37565b6040518091039020148015610a9b57508e8051906020012081600101604051610a919190611b37565b6040518091039020145b8015610ac557508d8051906020012081600201604051610abb9190611b37565b6040518091039020145b8015610aef57508c8051906020012081600301604051610ae59190611b37565b6040518091039020145b8015610b1957508b8051906020012081600401604051610b0f9190611b37565b6040518091039020145b8015610b4357508a8051906020012081600501604051610b399190611b37565b6040518091039020145b8015610b6d5750898051906020012081600601604051610b639190611b37565b6040518091039020145b15610c1c578181600001826001018360020184600301856004018660050187600601604051602001610ba59796959493929190611de5565b604051602081830303815290604052600143610bc191906115e6565b4043600143610bd091906115e6565b406040518060400160405280601881526020017f436f6d706c65746520426c6f636b2044657461696c733a20000000000000000081525090985098509850985098509850505050610c78565b50508080610c2990611e97565b9150506109bc565b5060008060001b60008060001b604051806060016040528060218152602001611ee06021913992919060405180602001604052806000815250909550955095509550955095505b9750975097509750975097915050565b60008054906101000a900473ffffffffffffffffffffffffffffffffffffffff1681565b600080600090505b600280549050811015610dda5760006001600060028481548110610cdb57610cda611a65565b5b9060005260206000200160009054906101000a900473ffffffffffffffffffffffffffffffffffffffff1673ffffffffffffffffffffffffffffffffffffffff1673ffffffffffffffffffffffffffffffffffffffff1681526020019081526020016000209050858051906020012081600201604051610d5b9190611b37565b60405180910390201480610d8d5750848051906020012081600301604051610d839190611b37565b6040518091039020145b80610db65750838051906020012081600401604051610dac9190611b37565b6040518091039020145b15610dc657600192505050610de0565b508080610dd290611e97565b915050610cb4565b50600090505b9392505050565b6000604051905090565b600080fd5b600080fd5b600080fd5b600080fd5b6000601f19601f8301169050919050565b7f4e487b7100000000000000000000000000000000000000000000000000000000600052604160045260246000fd5b610e4e82610e05565b810181811067ffffffffffffffff82111715610e6d57610e6c610e16565b5b80604052505050565b6000610e80610de7565b9050610e8c8282610e45565b919050565b600067ffffffffffffffff821115610eac57610eab610e16565b5b610eb582610e05565b9050602081019050919050565b82818337600083830152505050565b6000610ee4610edf84610e91565b610e76565b905082815260208101848484011115610f0057610eff610e00565b5b610f0b848285610ec2565b509392505050565b600082601f830112610f2857610f27610dfb565b5b8135610f38848260208601610ed1565b91505092915050565b600080600080600080600060e0888a031215610f6057610f5f610df1565b5b600088013567ffffffffffffffff811115610f7e57610f7d610df6565b5b610f8a8a828b01610f13565b975050602088013567ffffffffffffffff811115610fab57610faa610df6565b5b610fb78a828b01610f13565b965050604088013567ffffffffffffffff811115610fd857610fd7610df6565b5b610fe48a828b01610f13565b955050606088013567ffffffffffffffff81111561100557611004610df6565b5b6110118a828b01610f13565b945050608088013567ffffffffffffffff81111561103257611031610df6565b5b61103e8a828b01610f13565b93505060a088013567ffffffffffffffff81111561105f5761105e610df6565b5b61106b8a828b01610f13565b92505060c088013567ffffffffffffffff81111561108c5761108b610df6565b5b6110988a828b01610f13565b91505092959891949750929550565b600081519050919050565b600082825260208201905092915050565b60005b838110156110e15780820151818401526020810190506110c6565b60008484015250505050565b60006110f8826110a7565b61110281856110b2565b93506111128185602086016110c3565b61111b81610e05565b840191505092915050565b6000819050919050565b61113981611126565b82525050565b6000819050919050565b6111528161113f565b82525050565b6000606082019050818103600083015261117281866110ed565b90506111816020830185611130565b61118e6040830184611149565b949350505050565b600073ffffffffffffffffffffffffffffffffffffffff82169050919050565b60006111c182611196565b9050919050565b6111d1816111b6565b81146111dc57600080fd5b50565b6000813590506111ee816111c8565b92915050565b60006020828403121561120a57611209610df1565b5b6000611218848285016111df565b91505092915050565b600060e082019050818103600083015261123b818a6110ed565b9050818103602083015261124f81896110ed565b9050818103604083015261126381886110ed565b9050818103606083015261127781876110ed565b9050818103608083015261128b81866110ed565b905081810360a083015261129f81856110ed565b905081810360c08301526112b381846110ed565b905098975050505050505050565b6112ca8161113f565b81146112d557600080fd5b50565b6000813590506112e7816112c1565b92915050565b60006020828403121561130357611302610df1565b5b6000611311848285016112d8565b91505092915050565b611323816111b6565b82525050565b600060208201905061133e600083018461131a565b92915050565b600081519050919050565b600082825260208201905092915050565b6000819050602082019050919050565b611379816111b6565b82525050565b600061138b8383611370565b60208301905092915050565b6000602082019050919050565b60006113af82611344565b6113b9818561134f565b93506113c483611360565b8060005b838110156113f55781516113dc888261137f565b97506113e783611397565b9250506001810190506113c8565b5085935050505092915050565b6000602082019050818103600083015261141c81846113a4565b905092915050565b600060c082019050611439600083018961131a565b818103602083015261144b81886110ed565b905061145a6040830187611130565b6114676060830186611149565b818103608083015261147981856110ed565b905061148860a0830184611130565b979650505050505050565b7f4f6e6c792061646d696e2063616e2063616c6c20746869732066756e6374696f60008201527f6e00000000000000000000000000000000000000000000000000000000000000602082015250565b60006114ef6021836110b2565b91506114fa82611493565b604082019050919050565b6000602082019050818103600083015261151e816114e2565b9050919050565b7f53747564656e7420776974682074686573652064657461696c7320616c72656160008201527f6479206578697374730000000000000000000000000000000000000000000000602082015250565b60006115816029836110b2565b915061158c82611525565b604082019050919050565b600060208201905081810360008301526115b081611574565b9050919050565b7f4e487b7100000000000000000000000000000000000000000000000000000000600052601160045260246000fd5b60006115f18261113f565b91506115fc8361113f565b9250828203905081811115611614576116136115b7565b5b92915050565b60008160601b9050919050565b60006116328261161a565b9050919050565b600061164482611627565b9050919050565b61165c611657826111b6565b611639565b82525050565b6000819050919050565b61167d6116788261113f565b611662565b82525050565b6000819050919050565b61169e61169982611126565b611683565b82525050565b60006116b0828661164b565b6014820191506116c0828561166c565b6020820191506116d0828461168d565b602082019150819050949350505050565b7f4e487b7100000000000000000000000000000000000000000000000000000000600052602260045260246000fd5b6000600282049050600182168061172857607f821691505b60208210810361173b5761173a6116e1565b5b50919050565b60008190508160005260206000209050919050565b60006020601f8301049050919050565b600082821b905092915050565b6000600883026117a37fffffffffffffffffffffffffffffffffffffffffffffffffffffffffffffffff82611766565b6117ad8683611766565b95508019841693508086168417925050509392505050565b6000819050919050565b60006117ea6117e56117e08461113f565b6117c5565b61113f565b9050919050565b6000819050919050565b611804836117cf565b611818611810826117f1565b848454611773565b825550505050565b600090565b61182d611820565b6118388184846117fb565b505050565b5b8181101561185c57611851600082611825565b60018101905061183e565b5050565b601f8211156118a15761187281611741565b61187b84611756565b8101602085101561188a578190505b61189e61189685611756565b83018261183d565b50505b505050565b600082821c905092915050565b60006118c4600019846008026118a6565b1980831691505092915050565b60006118dd83836118b3565b9150826002028217905092915050565b6118f6826110a7565b67ffffffffffffffff81111561190f5761190e610e16565b5b6119198254611710565b611924828285611860565b600060209050601f8311600181146119575760008415611945578287015190505b61194f85826118d1565b8655506119b7565b601f19841661196586611741565b60005b8281101561198d57848901518255600182019150602085019450602081019050611968565b868310156119aa57848901516119a6601f8916826118b3565b8355505b6001600288020188555050505b505050505050565b600081905092915050565b60006119d5826110a7565b6119df81856119bf565b93506119ef8185602086016110c3565b80840191505092915050565b6000611a0782846119ca565b915081905092915050565b60006080820190508181036000830152611a2c81876110ed565b90508181036020830152611a4081866110ed565b9050611a4f6040830185611130565b611a5c6060830184611149565b95945050505050565b7f4e487b7100000000000000000000000000000000000000000000000000000000600052603260045260246000fd5b600081905092915050565b60008190508160005260206000209050919050565b60008154611ac181611710565b611acb8186611a94565b94506001821660008114611ae65760018114611afb57611b2e565b60ff1983168652811515820286019350611b2e565b611b0485611a9f565b60005b83811015611b2657815481890152600182019150602081019050611b07565b838801955050505b50505092915050565b6000611b438284611ab4565b915081905092915050565b7f4e616d653a000000000000000000000000000000000000000000000000000000600082015250565b6000611b846005836119bf565b9150611b8f82611b4e565b600582019050919050565b60008154611ba781611710565b611bb181866119bf565b94506001821660008114611bcc5760018114611be157611c14565b60ff1983168652811515820286019350611c14565b611bea85611741565b60005b83811015611c0c57815481890152600182019150602081019050611bed565b838801955050505b50505092915050565b7f2c4661746865724e616d653a2000000000000000000000000000000000000000600082015250565b6000611c53600d836119bf565b9150611c5e82611c1d565b600d82019050919050565b7f2c434e49433a0000000000000000000000000000000000000000000000000000600082015250565b6000611c9f6006836119bf565b9150611caa82611c69565b600682019050919050565b7f2c53657269616c4e6f3a20000000000000000000000000000000000000000000600082015250565b6000611ceb600b836119bf565b9150611cf682611cb5565b600b82019050919050565b7f2c526567697374726174696f6e4e6f3a20000000000000000000000000000000600082015250565b6000611d376011836119bf565b9150611d4282611d01565b601182019050919050565b7f2c436f757273653a000000000000000000000000000000000000000000000000600082015250565b6000611d836008836119bf565b9150611d8e82611d4d565b600882019050919050565b7f2c53657373696f6e3a0000000000000000000000000000000000000000000000600082015250565b6000611dcf6009836119bf565b9150611dda82611d99565b600982019050919050565b6000611df082611b77565b9150611dfc828a611b9a565b9150611e0782611c46565b9150611e138289611b9a565b9150611e1e82611c92565b9150611e2a8288611b9a565b9150611e3582611cde565b9150611e418287611b9a565b9150611e4c82611d2a565b9150611e588286611b9a565b9150611e6382611d76565b9150611e6f8285611b9a565b9150611e7a82611dc2565b9150611e868284611b9a565b915081905098975050505050505050565b6000611ea28261113f565b91507fffffffffffffffffffffffffffffffffffffffffffffffffffffffffffffffff8203611ed457611ed36115b7565b5b60018201905091905056fe5448495320444547524545204953204e4f54204953535545442042592041555354a26469706673582212206c7ac222b357cd079196fa7af9d7dc417ee97e7d7f4fc35bcc6cbbe2d3e1279a64736f6c63430008130033",
  "immutableReferences": {},
  "source": "// SPDX-License-Identifier: MIT\npragma solidity ^0.8.19;\n\ncontract StudentRegistry {\n    address public admin;\n\n    struct Student {\n        string name;\n        string fatherName;\n        string cnic;\n        string serialNo;\n        string registrationNo;\n        string course;\n        string session;\n    }\n\n    mapping(address => Student) public students;\n    address[] public studentAddresses;\n\n    event StudentAdded(\n        address indexed studentAddress,\n        string indexed name,\n        string indexed course,\n        string session,\n        string message,\n        bytes32 blockHash,\n        uint256 blockNumber\n    );\n\n    modifier onlyAdmin() {\n        require(msg.sender == admin, \"Only admin can call this function\");\n        _;\n    }\n\n    constructor() {\n        admin = msg.sender;\n    }\n\n    function addStudent(\n        string memory _name,\n        string memory _fatherName,\n        string memory _cnic,\n        string memory _serialNo,\n        string memory _registrationNo,\n        string memory _course,\n        string memory _session\n    ) external onlyAdmin returns (string memory, bytes32, uint256) {\n        require(!isStudentExists(_cnic, _serialNo, _registrationNo), \"Student with these details already exists\");\n\n        address studentAddress = address(uint160(uint256(keccak256(abi.encodePacked(msg.sender, block.number, blockhash(block.number - 1))))));\n\n        students[studentAddress] = Student({\n            name: _name,\n            fatherName: _fatherName,\n            cnic: _cnic,\n            serialNo: _serialNo,\n            registrationNo: _registrationNo,\n            course: _course,\n            session: _session\n        });\n\n        studentAddresses.push(studentAddress);\n\n        string memory successMessage = \"Student data added successfully\";\n        bytes32 blockHash = blockhash(block.number - 1);\n\n        emit StudentAdded(studentAddress, _name, _course, _session, successMessage, blockHash, block.number);\n\n        return (successMessage, blockHash, block.number);\n    }\n\n    // function getStudentData(\n    //     string memory _name,\n    //     string memory _fatherName,\n    //     string memory _cnic,\n    //     string memory _serialNo,\n    //     string memory _registrationNo,\n    //     string memory _course,\n    //     string memory _session\n    // ) external view returns (string memory, bytes32, uint256, string memory) {\n    //     for (uint256 i = 0; i < studentAddresses.length; i++) {\n    //         Student storage existingStudent = students[studentAddresses[i]];\n\n    //         if (\n    //             keccak256(bytes(existingStudent.name)) == keccak256(bytes(_name)) &&\n    //             keccak256(bytes(existingStudent.fatherName)) == keccak256(bytes(_fatherName)) &&\n    //             keccak256(bytes(existingStudent.cnic)) == keccak256(bytes(_cnic)) &&\n    //             keccak256(bytes(existingStudent.serialNo)) == keccak256(bytes(_serialNo)) &&\n    //             keccak256(bytes(existingStudent.registrationNo)) == keccak256(bytes(_registrationNo)) &&\n    //             keccak256(bytes(existingStudent.course)) == keccak256(bytes(_course)) &&\n    //             keccak256(bytes(existingStudent.session)) == keccak256(bytes(_session))\n    //         ) {\n    //             // Return the matching student data and block details\n    //             return (\n    //                 string(abi.encodePacked(\n    //                     \"Name:\", existingStudent.name,\n    //                     \",FatherName: \", existingStudent.fatherName,\n    //                     \",CNIC:\", existingStudent.cnic,\n    //                     \",SerialNo: \", existingStudent.serialNo,\n    //                     \",RegistrationNo: \", existingStudent.registrationNo,\n    //                     \",Course:\", existingStudent.course,\n    //                     \",Session:\", existingStudent.session\n    //                 )),\n    //                 blockhash(block.number - 1),\n    //                 block.number,\n    //                 \"Complete Block Details: \" \n    //             );\n    //         }\n    //     }\n\n    //     return (\"THIS DEGREE IS NOT ISSUED BY AUST\", bytes32(0), 0, \"\");\n    // }\n\n\n    function getStudentData(\n    string memory _name,\n    string memory _fatherName,\n    string memory _cnic,\n    string memory _serialNo,\n    string memory _registrationNo,\n    string memory _course,\n    string memory _session\n) external view returns (address, string memory, bytes32, uint256, string memory, bytes32) {\n    for (uint256 i = 0; i < studentAddresses.length; i++) {\n        address studentAddress = studentAddresses[i];\n        Student storage existingStudent = students[studentAddress];\n\n        if (\n            keccak256(bytes(existingStudent.name)) == keccak256(bytes(_name)) &&\n            keccak256(bytes(existingStudent.fatherName)) == keccak256(bytes(_fatherName)) &&\n            keccak256(bytes(existingStudent.cnic)) == keccak256(bytes(_cnic)) &&\n            keccak256(bytes(existingStudent.serialNo)) == keccak256(bytes(_serialNo)) &&\n            keccak256(bytes(existingStudent.registrationNo)) == keccak256(bytes(_registrationNo)) &&\n            keccak256(bytes(existingStudent.course)) == keccak256(bytes(_course)) &&\n            keccak256(bytes(existingStudent.session)) == keccak256(bytes(_session))\n        ) {\n            // Return the matching student address, student data, block details, and block hash\n            return (\n                studentAddress,\n                string(abi.encodePacked(\n                    \"Name:\", existingStudent.name,\n                    \",FatherName: \", existingStudent.fatherName,\n                    \",CNIC:\", existingStudent.cnic,\n                    \",SerialNo: \", existingStudent.serialNo,\n                    \",RegistrationNo: \", existingStudent.registrationNo,\n                    \",Course:\", existingStudent.course,\n                    \",Session:\", existingStudent.session\n                )),\n                blockhash(block.number - 1),\n                block.number,\n                \"Complete Block Details: \",\n                blockhash(block.number - 1)\n            );\n        }\n    }\n\n    return (address(0), \"THIS DEGREE IS NOT ISSUED BY AUST\", bytes32(0), 0, \"\", bytes32(0));\n}\n\n\n\n\n\n\n\n    function isStudentExists(string memory _cnic, string memory _serialNo, string memory _registrationNo) internal view returns (bool) {\n        for (uint256 i = 0; i < studentAddresses.length; i++) {\n            Student storage existingStudent = students[studentAddresses[i]];\n\n            if (\n                keccak256(bytes(existingStudent.cnic)) == keccak256(bytes(_cnic)) ||\n                keccak256(bytes(existingStudent.serialNo)) == keccak256(bytes(_serialNo)) ||\n                keccak256(bytes(existingStudent.registrationNo)) == keccak256(bytes(_registrationNo))\n            ) {\n                return true;\n            }\n        }\n\n        return false;\n    }\n\n    function getAllStudentAddresses() external view returns (address[] memory) {\n        return studentAddresses;\n    }\n}\n",
  "sourcePath": "C:\\Users\\Cr computer\\Desktop\\QUOVES\\FYP\\SmartContarct_FYP\\contracts\\StudentRegistry.sol",
  "compiler": {
    "name": "solc",
    "version": "0.8.19+commit.7dd6d404.Emscripten.clang"
  },
  "schemaVersion": "3.4.16",
  "updatedAt": "2024-01-19T17:52:18.485Z",
  "networkType": "ethereum",
  "devdoc": {
    "kind": "dev",
    "methods": {},
    "version": 1
  },
  "userdoc": {
    "kind": "user",
    "methods": {},
    "version": 1
  }
}